:100000000C9446000C9465000C9465000C946500FB
:100010000C9465000C9465000C9465000C946500CC
:100020000C9465000C9465000C9465000C946500BC
:100030000C9465000C9465000C9465000C946500AC
:100040000C9465000C9465000C9465000C9465009C
:100050000C9465000C9465000C9465000C9465008C
:100060000C9465000C9465000C9465000C9465007C
:100070000C9465000C9465000C9465000C9465006C
:100080000C9465000C9465000C94650011241FBE4F
:10009000CFEFD0E4DEBFCDBF11E0A0E0B1E0ECE9EE
:1000A000FCE400E00BBF02C007900D92AE30B10738
:1000B000D9F729E0AEE0B1E001C01D92AE33B2073E
:1000C000E1F70E9494210C944C260C9400003D0A08
:1000D0003D0A3E0A3F0A410A440A470A4B0A4F0AB0
:1000E000540A590A5F0A660A6D0A740A7D0A850A6B
:1000F0008F0A990AA30AAE0ABA0AC60AD30AE00A04
:10010000EE0AFC0A0B0B1B0B2B0B3C0B4D0B5E0B77
:10011000710B840B970BAB0BC00BD50BEA0B010CCF
:10012000170C2F0C460C5F0C780C910CAB0CC60C0A
:10013000E10CFD0C190D360D530D710D8F0DAE0D2B
:10014000CD0DED0D0E0E2F0E500E720E950EB80E3B
:10015000DC0E000F250F4A0F700F960FBD0FE40F36
:100160000C1034105D108610B010DA10051131112A
:100170005C118911B611E31111123F126E129D121A
:10018000CD12FD122E135F139113C313F61329140E
:100190005D149114C514FA14301566159C15D31509
:1001A0000A1642167A16B316EC16261760179A1717
:1001B000D51710184C188818C518021940197D1940
:1001C000BC19FB193A1A791AB91AFA1A3A1B7C1B8C
:1001D000BD1BFF1B421C841CC81C0B1D4F1D931D07
:1001E000D81D1D1E631EA91EEF1E351F7C1FC41FB8
:1001F0000B2053209C20E4202D217721C1210B22AC
:100200005522A022EB2237238223CE231B246824ED
:10021000B524022550259E25EC253B268A26D92685
:1002200028277827C82718286928BA280B295C2985
:10023000AE29002A522AA52AF72A4A2B9E2BF12BF7
:10024000452C992CED2C422D962DEB2D402E962EE3
:10025000EB2E412F972FED2F43309A30F13048315C
:100260009F31F6314E32A632FE325633AE3306346B
:100270005F34B83410356A35C3351C367636CF3620
:1002800029378337DD3737389138EC384639A1398B
:10029000FC39573AB23A0D3B683BC33B1F3C7A3CB2
:1002A000D63C313D8D3DE93D443EA03EFC3E583FAD
:1002B000B43F10406D40C94025418141DE413A4282
:1002C0009642F3424F43AC4308446544C1441E4543
:1002D0007A45D74533469046EC464847A5470148FE
:1002E0005E48BA4816497249CF492B4A874AE34AC1
:1002F0003F4B9B4BF74B534CAE4C0A4D664DC14D9B
:100300001D4E784ED34E2F4F8A4FE54F3F509A5097
:10031000F5504F51AA5104525E52B85212536C53C9
:10032000C6531F547954D2542B558455DC55355639
:100330008D56E6563E579657ED5745589C58F458FB
:100340004B59A159F8594E5AA45AFA5A505BA65B18
:10035000FB5B505CA55CFA5C4E5DA25DF65D4A5E9F
:100360009E5EF15E445F975FE95F3B608D60DF609A
:1003700030618261D26123627362C362136363631B
:10038000B26301644F649E64EC6439658765D4652B
:1003900020666D66B966056750679B67E6673168DA
:1003A0007B68C4680E695769A069E869306A786A31
:1003B000BF6A066B4D6B936BD96B1E6C636CA86C3C
:1003C000EC6C306D746DB76DFA6D3C6E7E6EC06E08
:1003D000016F426F826FC26F027041708070BE7099
:1003E000FC7039717671B371EF712B726672A17204
:1003F000DC7216734F738873C173F9733174687448
:100400009F74D6740B7541757675AB75DF75127672
:1004100045767876AA76DC760D773E776E779E778E
:10042000CD77FC772A7858788678B378DF780B799F
:10043000367961798B79B579DE79077A307A577AAE
:100440007F7AA57ACC7AF17A177B3B7B5F7B837BC3
:10045000A67BC97BEB7B0C7C2E7C4E7C6E7C8D7CE2
:10046000AC7CCB7CE87C067D227D3F7D5A7D757D12
:10047000907DAA7DC47DDC7DF57D0D7E247E3B7E56
:10048000517E677E7C7E907EA47EB87ECB7EDD7EB4
:10049000EF7E007F107F217F307F3F7F4E7F5B7F2D
:1004A000697F757F827F8D7F987FA37FAD7FB67FC9
:1004B000BF7FC77FCF7FD67FDC7FE27FE87FEC7F87
:1004C000F17FF47FF77FFA7FFC7FFD7FFE7FFE7F69
:1004D000FE7FFD7FFC7FFA7FF77FF47FF17FEC7F6B
:1004E000E87FE27FDC7FD67FCF7FC77FBF7FB67F8D
:1004F000AD7FA37F987F8D7F827F757F697F5B7FD4
:100500004E7F3F7F307F217F117F007FEF7EDD7E3A
:10051000CB7EB87EA47E907E7C7E677E517E3B7EC5
:10052000247E0D7EF57DDD7DC47DAA7D907D757D6B
:100530005A7D3F7D237D067DE87CCB7CAC7C8D7C29
:100540006E7C4E7C2E7C0D7CEB7BC97BA67B837BFB
:10055000607B3B7B177BF17ACC7AA57A7F7A577ADE
:10056000307A077ADE79B5798B79617936790B79CA
:10057000DF78B378867858782B78FC77CD779E77BC
:100580006E773E770D77DC76AA76787645761276AA
:10059000DF75AB75767541750C75D6749F7468748C
:1005A0003174F973C17388734F731673DC72A1725F
:1005B00066722B72EF71B37176713971FC70BE7017
:1005C000807041700270C26F826F426F016FC06EA7
:1005D0007E6E3C6EFA6DB76D746D306DEC6CA86C10
:1005E000636C1E6CD96B936B4D6B066BBF6A786A3C
:1005F000306AE869A06957690E69C4687B68316828
:10060000E6679B6750670567B9666D662066D465C7
:1006100087653965EC649E644F640164B26363630B
:100620001363C36273622362D26182613061DF60EF
:100630008D603B60E95F975F445FF15E9E5E4A5E5E
:10064000F65DA25D4E5DFA5CA55C505CFB5BA65B53
:10065000505BFB5AA55A4E5AF859A1594B59F458B8
:100660009C584558EE5796573E57E6568E56355687
:10067000DD5584552B55D25479541F54C6536C53B1
:100680001253B8525E520452AA514F51F5509A502B
:100690004050E54F8A4F2F4FD34E784E1D4EC14DDF
:1006A000664D0A4DAF4C534CF74B9B4B3F4BE34AC7
:1006B000874A2B4ACF4973491649BA485E480148D0
:1006C000A5474947EC4690463346D7457A451E45EF
:1006D000C14465440844AC434F43F34297423A4215
:1006E000DE4181412541C9406D401140B43F583F32
:1006F000FC3EA03E443EE93D8D3D313DD63C7A3C3A
:100700001F3CC33B683B0D3BB23A573AFC39A13919
:100710004739EC3892383738DD3783372937CF36C9
:1007200076361C36C3356A351135B8345F34063435
:10073000AE335633FE32A6324E32F6319F31483157
:10074000F1309A304330ED2F972F412FEB2E962E1C
:10075000402EEB2D962D422DED2C992C452CF12B76
:100760009E2B4B2BF82AA52A522A002AAE295C2957
:100770000B29BA2869281828C82778272827D926B6
:100780008A263B26EC259E2550250225B524682483
:100790001B24CF2382233723EB22A02255220B22B6
:1007A000C12177212E21E4209C2053200B20C41F3F
:1007B0007C1F351FEF1EA91E631E1D1ED81D931D15
:1007C0004F1D0B1DC81C841C421CFF1BBD1B7C1B2A
:1007D0003A1BFA1AB91A791A3A1AFB19BC197E1976
:1007E00040190219C51888184C181018D5179A17EF
:1007F00060172617EC16B3167A1642160A16D3158A
:100800009C1566153015FA14C51491145D1429143D
:10081000F613C31391135F132E13FD12CD129D1205
:100820006E123F121112E311B61189115D113111CF
:100830000511DA10B01086105D1034100C10E40FA2
:10084000BD0F960F700F4A0F250F000FDC0EB80E6C
:10085000950E730E500E2F0E0E0EED0DCD0DAE0D2E
:100860008F0D710D530D360D190DFD0CE10CC60CDD
:10087000AB0C910C780C5F0C460C2F0C170C010C78
:10088000EA0BD50BC00BAB0B970B840B710B5E0BFC
:100890004D0B3C0B2B0B1B0B0B0BFC0AEE0AE00A5F
:1008A000D30AC60ABA0AAE0AA30A990A8F0A850AA7
:1008B0007D0A740A6D0A660A5F0A590A540A4F0AC9
:1008C0004B0A470A440A410A3F0A3E0A3D0AFF7F93
:1008D0000000FE7FC900FC7F9201F97F5B02F57F7B
:1008E0002403EF7FED03E87FB604E07F7E05D77F2A
:1008F0004706CD7F1007C17FD907B47FA108A67F27
:100900006A09967F320A867FFB0A747FC30B617F78
:100910008B0C4C7F530D377F1B0E207FE30E087F1F
:10092000AB0FEF7E7210D47E3911B97E00129C7E1F
:10093000C7127E7E8E135E7E55143E7E1B151C7E76
:10094000E115F97DA716D57D6D17B07D3318897D2A
:10095000F818617DBD19387D821A0E7D461BE27C38
:100960000B1CB67CCF1C887C931D597C561E297CA1
:10097000191FF77BDC1FC47B9F20917B61215C7B6F
:100980002322257BE422EE7AA623B57A67247C7A9B
:100990002725417AE725047AA726C7796727897929
:1009A00026284979E5280879A329C678612A837819
:1009B0001E2B3F78DB2BF977982CB377542D6B7770
:1009C000102E2277CC2ED876862F8D764130407629
:1009D000FB30F375B431A4756D325475263303754D
:1009E000DE33B17496345E744D350A740336B573D4
:1009F000B9365E736F3706732438AE72D8385472C6
:100A00008C39F9713F3A9D71F23A4071A43BE17023
:100A1000563C8270073D2270B73DC06F673E5E6FE7
:100A2000163FFA6EC53F956E7340306E2041C96D1A
:100A3000CD41616D7942F86C25438E6CD043236CB7
:100A40007A44B76B23454A6BCC45DB6A74466C6AC3
:100A50001C47FC69C3478B69694819690E49A56839
:100A6000B3493168574ABC67FA4A45679D4BCE6621
:100A70003F4C5666E04CDD65804D6265204EE76474
:100A8000BF4E6B645D4FEE63FA4F70639750F16237
:100A900033517162CE51F06168526E610153EB6067
:100AA0009A5367603254E25FC9545D5F5F55D65E0A
:100AB000F4554F5E8956C65D1D573D5DB057B35C1A
:100AC0004258285CD3589C5B63590F5BF359815A99
:100AD000815AF3590F5B63599C5BD358285C425889
:100AE000B35CB0573D5D1D57C65D89564F5EF455EA
:100AF000D65E5F555D5FC954E25F325467609A53BA
:100B0000EB6001536E616852F061CE5171623351F6
:100B1000F16297507063FA4FEE635D4F6B64BF4EA6
:100B2000E764204E6265804DDD65E04C56663F4CC3
:100B3000CE669D4B4567FA4ABC67574A3168B34950
:100B4000A5680E49196969488B69C347FC691C4748
:100B50006C6A7446DB6ACC454A6B2345B76B7A44B2
:100B6000236CD0438E6C2543F86C7942616DCD4186
:100B7000C96D2041306E7340956EC53FFA6E163FC9
:100B80005E6F673EC06FB73D2270073D8270563C76
:100B9000E170A43B4071F23A9D713F3AF9718C3992
:100BA0005472D838AE72243806736F375E73B93614
:100BB000B57303360A744D355E749634B174DE3302
:100BC0000375263354756D32A475B431F375FB305B
:100BD000407641308D76862FD876CC2E2277102E17
:100BE0006B77542DB377982CF977DB2B3F781E2B3E
:100BF0008378612AC678A3290879E52849792628C7
:100C000089796727C779A726047AE825417A2725B5
:100C10007C7A6724B57AA623EE7AE522257B232207
:100C20005C7B6121917B9F20C47BDC1FF77B191FBC
:100C3000297C561E597C931D887CCF1CB67C0B1CCE
:100C4000E27C471B0E7D821A387DBD19617DF81844
:100C5000897D3318B07D6D17D57DA716F97DE11517
:100C60001C7E1B153E7E55145E7E8E137E7EC71243
:100C70009C7E0012B97E3911D47E7210EF7EAB0FCC
:100C8000087FE30E207F1B0E377F530D4C7F8B0CAC
:100C9000617FC30B747FFB0A867F320A967F6A09E5
:100CA000A67FA108B47FD907C17F1007CD7F470673
:100CB000D77F7F05E07FB604E87FED03EF7F240355
:100CC000F57F5B02F97F9201FC7FC900FE7F000087
:100CD000FE7F37FFFE7F6EFEFC7FA5FDF97FDCFC0B
:100CE000F57F13FCEF7F4AFBE87F82FAE07FB9F9DA
:100CF000D77FF0F8CD7F27F8C17F5FF7B47F96F6F6
:100D0000A67FCEF5967F05F5867F3DF4747F75F35B
:100D1000617FADF24C7FE5F1377F1DF1207F56F00A
:100D2000087F8EEFEF7EC7EED47E00EEB97E39ED00
:100D30009C7E72EC7E7EABEB5E7EE5EA3E7E1FEA39
:100D40001C7E59E9F97D93E8D57DCDE7B07D08E7B4
:100D5000897D43E6617D7EE5387DBAE40E7DF5E36D
:100D6000E27C31E3B67C6DE2887CAAE1597CE7E065
:100D7000297C24E0F77B61DFC47B9FDE917BDDDD96
:100D80005C7B1CDD257B5ADCEE7A99DBB57AD9DAFF
:100D90007C7A19DA417A59D9047A99D8C779DAD79D
:100DA00089791BD749795DD608799FD5C678E2D471
:100DB000837825D43F7868D3F977ACD2B377F0D174
:100DC0006B7735D122777AD0D876BFCF8D7605CFA5
:100DD00040764CCEF37593CDA475DACC547522CC05
:100DE00003756ACBB174B3CA5E74FDC90A7447C98E
:100DF000B57391C85E73DCC7067328C7AE7274C63C
:100E00005472C1C5F9710EC59D715CC44071AAC30D
:100E1000E170F9C2827049C2227099C1C06FEAC004
:100E20005E6F3BC0FA6E8DBF956EE0BE306E33BE16
:100E3000C96D87BD616DDBBCF86C30BC8E6C86BB48
:100E4000236CDDBAB76B34BA4A6B8CB9DB6AE4B891
:100E50006C6A3DB8FC6997B78B69F2B619694DB6F3
:100E6000A568A9B5316806B5BC6763B44667C1B368
:100E7000CE6620B3566680B2DD65E0B1626541B1F1
:100E8000E764A3B06B6406B0EE6369AF7063CDAE88
:100E9000F16232AE716298ADF061FFAC6E6166AC2A
:100EA000EB60CEAB676037ABE25FA1AA5D5F0CAAD7
:100EB000D65E77A94F5EE3A8C65D50A83D5DBEA78C
:100EC000B35C2DA7285C9DA69C5B0DA60F5B7FA540
:100ED000815AF1A4F35964A46359D8A3D3584DA3FC
:100EE0004258C3A2B0573AA21D57B1A189562AA1B0
:100EF000F555A3A05F551EA0C954999F3254159F64
:100F00009A53929E0153109E68528F9DCE510F9D11
:100F10003351909C9750129CFA4F959B5D4F199BB3
:100F2000BF4E9E9A204E239A804DAA99E04C32994A
:100F30003F4CBB989D4B4498FA4ACF97574A5B97D2
:100F4000B349E7960E49759669480496C347949548
:100F50001C4725957446B694CC4549942345DD93AA
:100F60007A447293D043089325439F9279423792F3
:100F7000CD41D19120416B9173400691C53FA29024
:100F8000163F4090673EDE8FB73D7E8F073D1F8F37
:100F9000563CC08EA43B638EF23A078E3F3AAC8D2E
:100FA0008C39528DD838FA8C2438A28C6F374C8CFF
:100FB000B936F68B0336A28B4D354F8B9634FD8AAE
:100FC000DE33AC8A26335C8A6E320D8AB431C08936
:100FD000FB30738941302889872FDE88CC2E958895
:100FE000102E4D88542D0788982CC187DC2B7D87C7
:100FF0001E2B3A87612AF886A329B786E5287786CB
:10100000262839866727FC85A726BF85E82584859D
:1010100027254B8567241285A623DB84E522A4843B
:1010200023226F8461213C849F200984DC1FD883A4
:10103000191FA783561E7883931D4A83CF1C1E83D6
:101040000B1CF282471BC882821A9F82BD197782CD
:10105000F818518233182B826D170782A716E48186
:10106000E115C2811B15A281551482818E13648102
:10107000C712478101122C81391111817210F88039
:10108000AB0FE080E30EC9801B0EB480530D9F8030
:101090008B0C8C80C30B7A80FB0A6A80330A5A80DF
:1010A0006A094C80A2083F80D90733801007298045
:1010B000470620807F051880B6041180ED030B8061
:1010C000240307805B02048092010280C9000000B3
:1010D00000080004000C0002000A0006000E0001D7
:1010E00000090005000D0003000B0007000F800041
:1010F00080088004800C8002800A8006800E8001B7
:1011000080098005800D8003800B8007800F4000E0
:1011100040084004400C4002400A4006400E400196
:1011200040094005400D4003400B4007400FC00000
:10113000C008C004C00CC002C00AC006C00EC00176
:10114000C009C005C00DC003C00BC007C00F200000
:1011500020082004200C2002200A2006200E200156
:1011600020092005200D2003200B2007200FA000C0
:10117000A008A004A00CA002A00AA006A00EA00136
:10118000A009A005A00DA003A00BA007A00F600060
:1011900060086004600C6002600A6006600E600116
:1011A00060096005600D6003600B6007600FE00080
:1011B000E008E004E00CE002E00AE006E00EE001F6
:1011C000E009E005E00DE003E00BE007E00F1000B0
:1011D00010081004100C1002100A1006100E100156
:1011E00010091005100D1003100B1007100F9000C0
:1011F00090089004900C9002900A9006900E900136
:1012000090099005900D9003900B9007900F50005F
:1012100050085004500C5002500A5006500E500115
:1012200050095005500D5003500B5007500FD0007F
:10123000D008D004D00CD002D00AD006D00ED001F5
:10124000D009D005D00DD003D00BD007D00F30007F
:1012500030083004300C3002300A3006300E3001D5
:1012600030093005300D3003300B3007300FB0003F
:10127000B008B004B00CB002B00AB006B00EB001B5
:10128000B009B005B00DB003B00BB007B00F7000DF
:1012900070087004700C7002700A7006700E700195
:1012A00070097005700D7003700B7007700FF000FF
:1012B000F008F004F00CF002F00AF006F00EF00175
:1012C000F009F005F00DF003F00BF007F00F080047
:1012D00008080804080C0802080A0806080E080195
:1012E00008090805080D0803080B0807080F8800FF
:1012F00088088804880C8802880A8806880E880175
:1013000088098805880D8803880B8807880F48009E
:1013100048084804480C4802480A4806480E480154
:1013200048094805480D4803480B4807480FC800BE
:10133000C808C804C80CC802C80AC806C80EC80134
:10134000C809C805C80DC803C80BC807C80F2800BE
:1013500028082804280C2802280A2806280E280114
:1013600028092805280D2803280B2807280FA8007E
:10137000A808A804A80CA802A80AA806A80EA801F4
:10138000A809A805A80DA803A80BA807A80F68001E
:1013900068086804680C6802680A6806680E6801D4
:1013A00068096805680D6803680B6807680FE8003E
:1013B000E808E804E80CE802E80AE806E80EE801B4
:1013C000E809E805E80DE803E80BE807E80F18006E
:1013D00018081804180C1802180A1806180E180114
:1013E00018091805180D1803180B1807180F98007E
:1013F00098089804980C9802980A9806980E9801F4
:1014000098099805980D9803980B9807980F58001D
:1014100058085804580C5802580A5806580E5801D3
:1014200058095805580D5803580B5807580FD8003D
:10143000D808D804D80CD802D80AD806D80ED801B3
:10144000D809D805D80DD803D80BD807D80F38003D
:1014500038083804380C3802380A3806380E380193
:1014600038093805380D3803380B3807380FB800FD
:10147000B808B804B80CB802B80AB806B80EB80173
:10148000B809B805B80DB803B80BB807B80F78009D
:1014900078087804780C7802780A7806780E780153
:1014A00078097805780D7803780B7807780FF800BD
:1014B000F808F804F80CF802F80AF806F80EF80133
:1014C000F809F805F80DF803F80BF807F80F3F9244
:1014D0002F921F930F93DF93CF93DC01EB0199279A
:1014E000EEECF0E000E014E0259135914D915D9136
:1014F000B503B0012C031001691FBC03790B300C3C
:10150000611D791FDA03790B300C611D791F699316
:101510007993699379930150104031F7CF91DF911E
:101520000F911F912F903F90112408953F922F9279
:101530005F924F927F926F929F928F92BF92AF92E3
:10154000DF92CF92FF92EF921F930F93DF93CF938F
:10155000FC0181E090E0A0E0B2E004E0809F600147
:10156000909FD00C7C019F938F93EF01A09FC00DA3
:10157000D11DB09FD00DFF93EF93BB24AA249927D0
:101580000081118115950795688179817595679519
:10159000A801061B170B460F571F4193519320813B
:1015A0003181359527956A817B8175956795A9016C
:1015B000261B370B460F571F419351930F01EEEC3B
:1015C000F8E0EA0DFB1D4591559165917591F0018B
:1015D000950320010C031001491E9C03590A300C8D
:1015E000411C591ED803590A300C411C591EB7031F
:1015F00040012E033001891EBE03990A700C811C24
:10160000991EFA03990A700C811C991E260C371C2E
:10161000481C591C49925992B50320012C03100112
:10162000491EBC03590A300C411C591EDA03590AE1
:10163000300C411C591E970340010E033001891ED6
:101640009E03990A700C811C991EF803990A700C6C
:10165000811C991E26183708480859084992599242
:10166000AC0CBD1CB3FE8CCF04E0A09FC00DD11DFF
:10167000E00DF11DB09FD00DF00D81E0E81AF90AE0
:1016800009F07BCFEF91FF918F919F91880F991F68
:10169000B695A795109609F060CFCF91DF910F9185
:1016A0001F91EF90FF90CF90DF90AF90BF908F9001
:1016B0009F906F907F904F905F902F903F900895F4
:1016C0003F922F925F924F927F926F929F928F9252
:1016D000BF92AF921F930F93DF93CF935C01EB0107
:1016E000EEECF0E1992700E012E0A591B591AA0D8A
:1016F000BB1D2D913D914D915D91B30320012A03B6
:101700001001491EBA03590A300C411C591EBA0374
:10171000590A300C411C591ED50340014C033001BD
:10172000891EDC03990A700C811C991EDC03990A3E
:10173000700C811C991E260C371C481C591C6624F1
:1017400077248824992421E030E04427552770E14C
:10175000220C331C441C551C661C771C881C991CCD
:10176000220C331C441C551C661C771C881C991CBD
:101770002AF4620E731E841E951E04C0621A730A38
:10178000840A950A220F331F441F287F256097FC87
:1017900022507A95E9F646953795279546953795DF
:1017A0002795299339930150104009F09ECFCF918E
:1017B000DF910F911F91AF90BF908F909F906F908E
:1017C0007F904F905F902F903F9011240895AC012F
:1017D0009927D703F0014E03D001E91FDE03F90B6F
:1017E000B00DE11DF91FFC03F90BB00DE11DF91F50
:1017F000CF01112408953D0A4F0A850AE00A5E0BC5
:10180000010CC60CAE0DB80EE40F31119D12291457
:10181000D3159A177D197C1B931DC41F0B226824B6
:10182000D9265C29F12B962E48310634CF36A139C2
:101830007A3C583F3A421E450148E34AC14D9A500E
:101840006C533556F458A65B4A5EDF606363D4651B
:101850003168786AA86CC06EBE70A1726874127626
:101860009E770B79577A837B8D7C757D3B7EDD7E01
:101870005B7FB67FEC7FFE7FEC7FB67F5B7FDD7E9C
:101880003B7E757D8D7C837B577A0B799E771276B4
:101890006874A172BE70C06EA86C786A3168D46535
:1018A0006363DF604A5EA65BF45835566C539A500A
:1018B000C14DE34A01481E453A42583F7A3CA1399E
:1018C000CF3606344831962EF12B5C29D926682470
:1018D0000B22C41F931D7C1B7E199A17D315291444
:1018E0009D123111E40FB80EAE0DC60C010C5E0B4B
:1018F000E00A850A4F0AFF7F0000D77F4706617F15
:101900008B0C9C7EC712897DF818297C191F7C7A64
:10191000272583781E2B4076FB30B573B936E170EE
:10192000563CC96DCD416C6A1C47CE663F4CF16296
:101930003351D65EF455815A815AF455D65E3351EF
:10194000F1623F4CCE661C476C6ACD41C96D563C76
:10195000E170B936B573FB3040761E2B83782725AE
:101960007C7A191F297CF818897DC7129C7E8B0C04
:10197000617F4706D77F0000FE7FB9F9D77F75F3F7
:10198000617F39ED9C7E08E7897DE7E0297CD9DA23
:101990007C7AE2D4837805CF407647C9B573AAC371
:1019A000E17033BEC96DE4B86C6AC1B3CE66CDAE2A
:1019B000F1620CAAD65E7FA5815A2AA1F5550F9D2A
:1019C000335132993F4C94951C473792CD411F8F2C
:1019D000563C4C8CB936C089FB307D871E2B8485E4
:1019E0002725D883191F7782F8186481C7129F8032
:1019F0008B0C298047060000000180008001400018
:101A00004001C000C00120002001A000A001600032
:101A10006001E000E0011000100190009001500012
:101A20005001D000D00130003001B000B001700092
:101A30007001F000F00108000801880088014800EA
:101A40004801C800C80128002801A800A8016800B2
:101A50006801E800E8011800180198009801580092
:101A60005801D800D80138003801B800B801780012
:101A70007801F800F8013F922F921F930F93DF93A4
:101A8000CF93DC01EB019927E6EFF7E100E810E0E6
:101A9000259135914D915D91B503B0012C03100155
:101AA000691FBC03790B300C611D791FDA03790BB8
:101AB000300C611D791F6993799369937993015073
:101AC000104031F7CF91DF910F911F912F903F90F0
:101AD000112408953F922F925F924F927F926F92BE
:101AE0009F928F92BF92AF92DF92CF92FF92EF922E
:101AF0001F930F93DF93CF93FC0181E090E0A0E46C
:101B0000B0E004E0809F6001909FD00C7C019F9327
:101B10008F93EF01A09FC00DD11DB09FD00DFF93FB
:101B2000EF93BB24AA24992700811181159507956D
:101B30006881798175956795A801061B170B460F7B
:101B4000571F4193519320813181359527956A81A3
:101B50007B8175956795A901261B370B460F571F8B
:101B6000419351930F01E6EFF8E1EA0DFB1D45911A
:101B7000559165917591F001950320010C031001B9
:101B8000491E9C03590A300C411C591ED803590A9E
:101B9000300C411C591EB70340012E033001891E31
:101BA000BE03990A700C811C991EFA03990A700CE5
:101BB000811C991E260C371C481C591C49925992AD
:101BC000B50320012C031001491EBC03590A300C37
:101BD000411C591EDA03590A300C411C591E970347
:101BE00040010E033001891E9E03990A700C811C6E
:101BF000991EF803990A700C811C991E2618370843
:101C00004808590849925992AC0CBD1CB0FE8CCFC3
:101C100004E0A09FC00DD11DE00DF11DB09FD00DBF
:101C2000F00D81E0E81AF90A09F07BCFEF91FF91FE
:101C30008F919F91880F991FB695A795109609F0DF
:101C400060CFCF91DF910F911F91EF90FF90CF90D8
:101C5000DF90AF90BF908F909F906F907F904F904C
:101C60005F902F903F9008953F922F925F924F92F6
:101C70007F926F929F928F92BF92AF921F930F931A
:101C8000DF93CF935C01EB01E6EFF9E1992700E4E4
:101C900010E0A591B591AA0DBB1D2D913D914D91DF
:101CA0005D91B30320012A031001491EBA03590AAA
:101CB000300C411C591EBA03590A300C411C591EE4
:101CC000D50340014C033001891EDC03990A700CD6
:101CD000811C991EDC03990A700C811C991E260C2C
:101CE000371C481C591C662477248824992421E039
:101CF00030E04427552770E1220C331C441C551C4E
:101D0000661C771C881C991C220C331C441C551C17
:101D1000661C771C881C991C2AF4620E731E841E94
:101D2000951E04C0621A730A840A950A220F331F93
:101D3000441F287F256097FC22507A95E9F6469546
:101D400037952795469537952795299339930150CF
:101D5000104009F09ECFCF91DF910F911F91AF906E
:101D6000BF908F909F906F907F904F905F902F903B
:101D70003F9011240895AC019927D703F0014E0339
:101D8000D001E91FDE03F90BB00DE11DF91FFC03C3
:101D9000F90BB00DE11DF91FCF01112408953D0A83
:101DA000410A4F0A660A850AAE0AE00A1B0B5E0B5F
:101DB000AB0B010C5F0CC60C360DAE0D2F0EB80E22
:101DC0004A0FE40F86103111E3119D125F1329149D
:101DD000FA14D315B3169A1788187D19791A7C1B33
:101DE000841C931DA91EC41FE4200B2237236824E2
:101DF0009E25D92618285C29A52AF12B422D962E3E
:101E0000ED2F4831A63206346A35CF363738A1393E
:101E10000D3B7A3CE93D583FC9403A42AC431E4530
:101E2000904601487249E34A534CC14D2F4F9A5096
:101E300004526C53D25435569657F4584E5AA65BFA
:101E4000FA5C4A5E975FDF60236263639E64D465D9
:101E5000056731685769786A936BA86CB76DC06E77
:101E6000C26FBE70B371A1728873687441751276C7
:101E7000DC769E7758780B79B579577AF17A837B3F
:101E80000C7C8D7C067D757DDC7D3B7E907EDD7ED1
:101E9000217F5B7F8D7FB67FD67FEC7FFA7FFE7FD1
:101EA000FA7FEC7FD67FB67F8D7F5B7F217FDD7EE3
:101EB000907E3B7EDD7D757D067D8D7C0D7C837BFC
:101EC000F17A577AB5790B7958789E77DC76127665
:101ED000417568748873A172B371BE70C26FC06EB1
:101EE000B76DA86C936B786A576931680567D465DC
:101EF0009E6463632362DF60975F4A5EFA5CA65B61
:101F00004E5AF45896573556D2546C5304529A5040
:101F10002F4FC14D534CE34A7349014890461E452B
:101F2000AC433A42C940583FE93D7A3C0D3BA139A8
:101F30003738CF366A350634A6324831ED2F962E23
:101F4000422DF12BA52A5C291828D9269E25682424
:101F500037230B22E420C41FA91E931D841C7C1B65
:101F6000791A7E1988189A17B316D315FA142914FA
:101F70005F139D12E31131118610E40F4A0FB80E62
:101F80002F0EAE0D360DC60C5F0C010CAB0B5E0BAD
:101F90001B0BE00AAE0A850A660A4F0A410AFF7F58
:101FA0000000F57F2403D77F4706A67F6A09617F7B
:101FB0008B0C087FAB0F9C7EC7121C7EE115897DC0
:101FC000F818E27C0B1C297C191F5C7B23227C7A8D
:101FD00027258979262883781E2B6B77102E40764B
:101FE000FB300375DE33B573B93654728C39E1704A
:101FF000563C5E6F163FC96DCD41236C7A446C6AC6
:102000001C47A568B349CE663F4CE764BF4EF162FA
:102010003351EB609A53D65EF455B35C4258815A03
:10202000815A4258B35CF455D65E9A53EB603351F3
:10203000F162BF4EE7643F4CCE66B349A5681C47CA
:102040006C6A7A44236CCD41C96D163F5E6F563C75
:10205000E1708C395472B936B573DE330375FB30D9
:102060004076102E6B771E2B8378262889792725BA
:102070007C7A23225C7B191F297C0B1CE27CF818DC
:10208000897DE1151C7EC7129C7EAB0F087F8B0CEF
:10209000617F6A09A67F4706D77F2403F57F00008A
:1020A000FE7FDCFCF57FB9F9D77F96F6A67F75F346
:1020B000617F56F0087F39ED9C7E1FEA1C7E08E7A1
:1020C000897DF5E3E27CE7E0297CDDDD5C7BD9DA24
:1020D0007C7ADAD78979E2D48378F0D16B7705CF2F
:1020E000407622CC037547C9B57374C65472AAC32F
:1020F000E170EAC05E6F33BEC96D86BB236CE4B885
:102100006C6A4DB6A568C1B3CE6641B1E764CDAE89
:10211000F16266ACEB600CAAD65EBEA7B35C7FA58D
:10212000815A4DA342582AA1F555159F9A530F9DE8
:102130003351199BBF4E32993F4C5B97B3499495ED
:102140001C47DD937A443792CD41A290163F1F8FF2
:10215000563CAC8D8C394C8CB936FD8ADE33C08947
:10216000FB309588102E7D871E2B77862628848548
:102170002725A4842322D883191F1E830B1C778252
:10218000F818E481E1156481C712F880AB0F9F80D5
:102190008B0C5A806A09298047060B8024030000B3
:1021A00000020001000380008002800180034000E3
:1021B000400240014003C000C002C001C003200033
:1021C000200220012003A000A002A001A0036000C3
:1021D000600260016003E000E002E001E003100043
:1021E0001002100110039000900290019003500023
:1021F000500250015003D000D002D001D003300073
:10220000300230013003B000B002B001B003700002
:10221000700270017003F000F002F001F00308009A
:102220000802080108038800880288018803480022
:10223000480248014803C800C802C801C803280072
:10224000280228012803A800A802A801A803680002
:10225000680268016803E800E802E801E803180082
:102260001802180118039800980298019803580062
:10227000580258015803D800D802D801D8033800B2
:10228000380238013803B800B802B801B803780042
:10229000780278017803F800F802F801F8033F9219
:1022A0002F921F930F93DF93CF93DC01EB019927BC
:1022B000EEE9FDE100E011E0259135914D915D9150
:1022C000B503B0012C031001691FBC03790B300C5E
:1022D000611D791FDA03790B300C611D791F699339
:1022E0007993699379930150104031F7CF91DF9141
:1022F0000F911F912F903F90112408953F922F929C
:102300005F924F927F926F929F928F92BF92AF9205
:10231000DF92CF92FF92EF921F930F93DF93CF93B1
:10232000FC0181E090E0A0E8B0E004E0809F600163
:10233000909FD00C7C019F938F93EF01A09FC00DC5
:10234000D11DB09FD00DFF93EF93BB24AA249927F2
:10235000008111811595079568817981759567953B
:10236000A801061B170B460F571F4193519320815D
:102370003181359527956A817B8175956795A9018E
:10238000261B370B460F571F419351930F01EEE960
:10239000FFE1EA0DFB1D4591559165917591F001A5
:1023A000950320010C031001491E9C03590A300CAF
:1023B000411C591ED803590A300C411C591EB70341
:1023C00040012E033001891EBE03990A700C811C46
:1023D000991EFA03990A700C811C991E260C371C51
:1023E000481C591C49925992B50320012C03100135
:1023F000491EBC03590A300C411C591EDA03590A04
:10240000300C411C591E970340010E033001891EF8
:102410009E03990A700C811C991EF803990A700C8E
:10242000811C991E26183708480859084992599264
:10243000AC0CBD1CB1FE8CCF04E0A09FC00DD11D23
:10244000E00DF11DB09FD00DF00D81E0E81AF90A02
:1024500009F07BCFEF91FF918F919F91880F991F8A
:10246000B695A795109609F060CFCF91DF910F91A7
:102470001F91EF90FF90CF90DF90AF90BF908F9023
:102480009F906F907F904F905F902F903F90089516
:102490003F922F925F924F927F926F929F928F9274
:1024A000BF92AF921F930F93DF93CF935C01EB0129
:1024B000EEE9F1E2992700E810E0A591B591AA0DA7
:1024C000BB1D2D913D914D915D91B30320012A03D8
:1024D0001001491EBA03590A300C411C591EBA0397
:1024E000590A300C411C591ED50340014C033001E0
:1024F000891EDC03990A700C811C991EDC03990A61
:10250000700C811C991E260C371C481C591C662413
:1025100077248824992421E030E04427552770E16E
:10252000220C331C441C551C661C771C881C991CEF
:10253000220C331C441C551C661C771C881C991CDF
:102540002AF4620E731E841E951E04C0621A730A5A
:10255000840A950A220F331F441F287F256097FCA9
:1025600022507A95E9F64695379527954695379501
:102570002795299339930150104009F09ECFCF91B0
:10258000DF910F911F91AF90BF908F909F906F90B0
:102590007F904F905F902F903F9011240895AC0151
:1025A0009927D703F0014E03D001E91FDE03F90B91
:1025B000B00DE11DF91FFC03F90BB00DE11DF91F72
:1025C000CF01112408953D0A3E0A410A470A4F0AE5
:1025D000590A660A740A850A990AAE0AC60AE00A06
:1025E000FC0A1B0B3C0B5E0B840BAB0BD50B010CDD
:1025F0002F0C5F0C910CC60CFD0C360D710DAE0D41
:10260000ED0D2F0E720EB80E000F4A0F960FE40F4D
:1026100034108610DA1031118911E3113F129D1226
:10262000FD125F13C31329149114FA146615D31500
:102630004216B31626179A171018881802197D1912
:10264000FB19791AFA1A7C1BFF1B841C0B1D931DA6
:102650001D1EA91E351FC41F5320E42077210B2205
:10266000A0223723CE23682402259E253B26D92687
:1026700078271828BA285C29002AA52A4A2BF12B8A
:10268000992C422DEB2D962E412FED2F9A3048316B
:10269000F631A63256330634B8346A351C36CF3696
:1026A00083373738EC38A139573A0D3BC33B7A3C76
:1026B000313DE93DA03E583F1040C94081413A427A
:1026C000F342AC4365441E45D74590464847014810
:1026D000BA4872492B4AE34A9B4B534C0A4DC14DB1
:1026E000784E2F4FE54F9A504F510452B8526C53C9
:1026F0001F54D25484553556E65696574558F458CB
:10270000A1594E5AFA5AA65B505CFA5CA25D4A5E29
:10271000F15E975F3B60DF6082612362C362636347
:1027200001649E643965D4656D6605679B67316891
:10273000C4685769E869786A066B936B1E6CA86C6D
:10274000306DB76D3C6EC06E426FC26F4170BE702F
:102750003971B3712B72A17216738873F97368742F
:10276000D6744175AB7512767876DC763E779E77B7
:10277000FC775878B3780B796179B579077A577A0D
:10278000A57AF17A3B7B837BC97B0C7C4E7C8D7C6C
:10279000CB7C067D3F7D757DAA7DDC7D0D7E3B7EFD
:1027A000677E907EB87EDD7E007F217F3F7F5B7FEE
:1027B000757F8D7FA37FB67FC77FD67FE27FEC7F5B
:1027C000F47FFA7FFD7FFE7FFD7FFA7FF47FEC7F51
:1027D000E27FD67FC77FB67FA37F8D7F757F5B7FCC
:1027E0003F7F217F007FDD7EB87E907E677E3B7ECF
:1027F0000D7EDD7DAA7D757D3F7D067DCB7C8D7C4C
:102800004E7C0D7CC97B837B3B7BF17AA57A577A22
:10281000077AB57961790B79B3785878FC779E7728
:102820003E77DC7678761276AB754175D67468742F
:10283000F97388731673A1722B72B3713971BE70FC
:102840004170C26F426FC06E3C6EB76D306DA86C48
:102850001E6C936B066B786AE8695769C4683168C7
:102860009B6705676D66D46539659E640164636323
:10287000C36223628261DF603B60975FF15E4A5E04
:10288000A25DFA5C505CA65BFB5A4E5AA159F45803
:1028900045589657E65635568455D2541F546C53B6
:1028A000B85204524F519A50E54F2F4F784EC14DB8
:1028B0000A4D534C9B4BE34A2B4A7349BA48014893
:1028C00049479046D7451E456544AC43F3423A42DA
:1028D0008141C9401140583FA03EE93D313D7A3C1D
:1028E000C33B0D3B573AA139EC3837388337CF36E5
:1028F0001C366A35B83406345633A632F6314831C0
:102900009A30ED2F412F962EEB2D422D992CF12B45
:102910004B2BA52A002A5C29BA2818287827D92603
:102920003B269E2502256824CF233723A0220B2295
:102930007721E4205320C41F351FA91E1D1E931D9F
:102940000B1D841CFF1B7C1BFA1A791AFB197E19BC
:102950000219881810189A172617B3164216D3159D
:102960006615FA1491142914C3135F13FD129D12F6
:102970003F12E31189113111DA1086103410E40F7F
:10298000960F4A0F000FB80E730E2F0EED0DAE0D01
:10299000710D360DFD0CC60C910C5F0C2F0C010C4B
:1029A000D50BAB0B840B5E0B3C0B1B0BFC0AE00A3C
:1029B000C60AAE0A990A850A740A660A590A4F0AB3
:1029C000470A410A3E0AFF7F0000FC7F9201F57F23
:1029D0002403E87FB604D77F4706C17FD907A67FC7
:1029E0006A09867FFB0A617F8B0C377F1B0E087F8D
:1029F000AB0FD47E39119C7EC7125E7E55141C7EAF
:102A0000E115D57D6D17897DF818387D821AE27C35
:102A10000B1C887C931D297C191FC47B9F205C7B29
:102A20002322EE7AA6237C7A2725047AA7268979A1
:102A300026280879A32983781E2BF977982C6B77A1
:102A4000102ED876862F4076FB30A4756D32037534
:102A5000DE335E744D35B573B9360673243854725F
:102A60008C399D71F23AE170563C2270B73D5E6F31
:102A7000163F956E7340C96DCD41F86C2543236CAC
:102A80007A444A6BCC456C6A1C478B696948A568D7
:102A9000B349BC67FA4ACE663F4CDD65804DE764BA
:102AA000BF4EEE63FA4FF1623351F0616852EB6052
:102AB0009A53E25FC954D65EF455C65D1D57B35CA8
:102AC00042589C5B6359815A815A63599C5B4258B6
:102AD000B35C1D57C65DF455D65EC954E25F9A5388
:102AE000EB606852F0613351F162FA4FEE63BF4E12
:102AF000E764804DDD653F4CCE66FA4ABC67B3495A
:102B0000A56869488B691C476C6ACC454A6B7A4456
:102B1000236C2543F86CCD41C96D7340956E163F0B
:102B20005E6FB73D2270563CE170F23A9D718C3970
:102B3000547224380673B936B5734D355E74DE337E
:102B400003756D32A475FB304076862FD876102E33
:102B50006B77982CF9771E2B8378A3290879262880
:102B60008979A726047A27257C7AA623EE7A232260
:102B70005C7B9F20C47B191F297C931D887C0B1CC8
:102B8000E27C821A387DF818897D6D17D57DE115B4
:102B90001C7E55145E7EC7129C7E3911D47EAB0F0D
:102BA000087F1B0E377F8B0C617FFB0A867F6A09CB
:102BB000A67FD907C17F4706D77FB604E87F2403E5
:102BC000F57F9201FC7F0000FE7F6EFEFC7FDCFC47
:102BD000F57F4AFBE87FB9F9D77F27F8C17F96F6E2
:102BE000A67F05F5867F75F3617FE5F1377F56F0A7
:102BF000087FC7EED47E39ED9C7EABEB5E7E1FEA8C
:102C00001C7E93E8D57D08E7897D7EE5387DF5E378
:102C1000E27C6DE2887CE7E0297C61DFC47BDDDD5E
:102C20005C7B5ADCEE7AD9DA7C7A59D9047ADAD725
:102C300089795DD60879E2D4837868D3F977F0D1C1
:102C40006B777AD0D87605CF407693CDA47522CC19
:102C50000375B3CA5E7447C9B573DCC7067374C61F
:102C600054720EC59D71AAC3E17049C22270EAC0B8
:102C70005E6F8DBF956E33BEC96DDBBCF86C86BBD5
:102C8000236C34BA4A6BE4B86C6A97B78B694DB65B
:102C9000A56806B5BC67C1B3CE6680B2DD6541B13B
:102CA000E76406B0EE63CDAEF16298ADF06166AC5C
:102CB000EB6037ABE25F0CAAD65EE3A8C65DBEA7A9
:102CC000B35C9DA69C5B7FA5815A64A463594DA308
:102CD00042583AA21D572AA1F5551EA0C954159F66
:102CE0009A53109E68520F9D3351129CFA4F199BB4
:102CF000BF4E239A804D32993F4C4498FA4A5B97D5
:102D0000B3497596694894951C47B694CC45DD93B4
:102D10007A44089325433792CD416B917340A2903A
:102D2000163FDE8FB73D1F8F563C638EF23AAC8D57
:102D30008C39FA8C24384C8CB936A28B4D35FD8AEF
:102D4000DE335C8A6E32C089FB302889872F9588F4
:102D5000102E0788982C7D871E2BF886A32977864E
:102D60002628FC85A726848527251285A623A484EA
:102D700023223C849F20D883191F7883931D1E83B0
:102D80000B1CC882821A7782F8182B826D17E48197
:102D9000E115A28155146481C7122C813911F88084
:102DA000AB0FC9801B0E9F808B0C7A80FB0A5A8068
:102DB0006A093F80D907298047061880B6040B802E
:102DC00024030480920100000004000200060001B8
:102DD0000005000300078000800480028006800157
:102DE0008005800380074000400440024006400107
:102DF000400540034007C000C004C002C006C00137
:102E0000C005C003C00720002004200220062001C6
:102E1000200520032007A000A004A002A006A00116
:102E2000A005A003A00760006004600260066001C6
:102E3000600560036007E000E004E002E006E001F6
:102E4000E005E003E0071000100410021006100176
:102E50001005100310079000900490029006900156
:102E60009005900390075000500450025006500106
:102E7000500550035007D000D004D002D006D00136
:102E8000D005D003D00730003004300230063001C6
:102E9000300530033007B000B004B002B006B00116
:102EA000B005B003B00770007004700270067001C6
:102EB000700570037007F000F004F002F006F001F6
:102EC000F005F003F00708000804080208060801EE
:102ED0000805080308078800880488028806880116
:102EE00088058803880748004804480248064801C6
:102EF000480548034807C800C804C802C806C801F6
:102F0000C805C803C8072800280428022806280185
:102F1000280528032807A800A804A802A806A801D5
:102F2000A805A803A8076800680468026806680185
:102F3000680568036807E800E804E802E806E801B5
:102F4000E805E803E8071800180418021806180135
:102F50001805180318079800980498029806980115
:102F600098059803980758005804580258065801C5
:102F7000580558035807D800D804D802D806D801F5
:102F8000D805D803D8073800380438023806380185
:102F9000380538033807B800B804B802B806B801D5
:102FA000B805B803B8077800780478027806780185
:102FB000780578037807F800F804F802F806F801B5
:102FC000F805F803F8073F922F921F930F93DF93B2
:102FD000CF93DC01EB019927E6ECF5E200E012E08B
:102FE000259135914D915D91B503B0012C031001F0
:102FF000691FBC03790B300C611D791FDA03790B53
:10300000300C611D791F699379936993799301500D
:10301000104031F7CF91DF910F911F912F903F908A
:10302000112408953F922F925F924F927F926F9258
:103030009F928F92BF92AF92DF92CF92FF92EF92C8
:103040001F930F93DF93CF93FC0181E090E0A0E00A
:10305000B1E004E0809F6001909FD00C7C019F93C1
:103060008F93EF01A09FC00DD11DB09FD00DFF9396
:10307000EF93BB24AA249927008111811595079508
:103080006881798175956795A801061B170B460F16
:10309000571F4193519320813181359527956A813E
:1030A0007B8175956795A901261B370B460F571F26
:1030B000419351930F01E6ECF9E2EA0DFB1D4591B6
:1030C000559165917591F001950320010C03100154
:1030D000491E9C03590A300C411C591ED803590A39
:1030E000300C411C591EB70340012E033001891ECC
:1030F000BE03990A700C811C991EFA03990A700C80
:10310000811C991E260C371C481C591C4992599247
:10311000B50320012C031001491EBC03590A300CD1
:10312000411C591EDA03590A300C411C591E9703E1
:1031300040010E033001891E9E03990A700C811C08
:10314000991EF803990A700C811C991E26183708DD
:103150004808590849925992AC0CBD1CB2FE8CCF5C
:1031600004E0A09FC00DD11DE00DF11DB09FD00D5A
:10317000F00D81E0E81AF90A09F07BCFEF91FF9199
:103180008F919F91880F991FB695A795109609F07A
:1031900060CFCF91DF910F911F91EF90FF90CF9073
:1031A000DF90AF90BF908F909F906F907F904F90E7
:1031B0005F902F903F9008953F922F925F924F9291
:1031C0007F926F929F928F92BF92AF921F930F93B5
:1031D000DF93CF935C01EB01E6ECFDE2992700E081
:1031E00011E0A591B591AA0DBB1D2D913D914D9179
:1031F0005D91B30320012A031001491EBA03590A45
:10320000300C411C591EBA03590A300C411C591E7E
:10321000D50340014C033001891EDC03990A700C70
:10322000811C991EDC03990A700C811C991E260CC6
:10323000371C481C591C662477248824992421E0D3
:1032400030E04427552770E1220C331C441C551CE8
:10325000661C771C881C991C220C331C441C551CB2
:10326000661C771C881C991C2AF4620E731E841E2F
:10327000951E04C0621A730A840A950A220F331F2E
:10328000441F287F256097FC22507A95E9F64695E1
:10329000379527954695379527952993399301506A
:1032A000104009F09ECFCF91DF910F911F91AF9009
:1032B000BF908F909F906F907F904F905F902F90D6
:1032C0003F9011240895AC019927D703F0014E03D4
:1032D000D001E91FDE03F90BB00DE11DF91FFC035E
:1032E000F90BB00DE11DF91FCF01112408953D0A1E
:1032F000850A5E0BC60CB80E311129149A177C1B77
:10330000C41F68245C29962E0634A139583F1E45F7
:10331000E34A9A503556A65BDF60D465786AC06E82
:10332000A17212760B79837B757DDD7EB67FFE7F81
:10333000B67FDD7E757D837B0B791276A172C06EC0
:10334000786AD465DF60A65B35569A50E34A1E451D
:10335000583FA1390634962E5C296824C41F7C1B73
:103360009A1729143111B80EC60C5E0B850AFF7F1F
:103370000000617F8B0C897DF8187C7A27254076C8
:10338000FB30E170563C6C6A1C47F1623351815A44
:10339000815A3351F1621C476C6A563CE170FB3034
:1033A000407627257C7AF818897D8B0C617F000098
:1033B000FE7F75F3617F08E7897DD9DA7C7A05CFD6
:1033C0004076AAC3E170E4B86C6ACDAEF1627FA525
:1033D000815A0F9D335194951C471F8F563CC089CD
:1033E000FB30848527257782F8189F808B0C00009E
:1033F00080004000C0002000A0006000E00010003D
:1034000090005000D0003000B0007000F0000800C4
:1034100088004800C8002800A8006800E8001800DC
:1034200098005800D8003800B8007800F8003F92A3
:103430002F921F930F93DF93CF93DC01EB0199271A
:10344000EEEEF2E300E410E0259135914D915D91AF
:10345000B503B0012C031001691FBC03790B300CBC
:10346000611D791FDA03790B300C611D791F699397
:103470007993699379930150104031F7CF91DF919F
:103480000F911F912F903F90112408953F922F92FA
:103490005F924F927F926F929F928F92BF92AF9264
:1034A000DF92CF92FF92EF921F930F93DF93CF9310
:1034B000FC0181E090E0A0E2B0E004E0809F6001C8
:1034C000909FD00C7C019F938F93EF01A09FC00D24
:1034D000D11DB09FD00DFF93EF93BB24AA24992751
:1034E000008111811595079568817981759567959A
:1034F000A801061B170B460F571F419351932081BC
:103500003181359527956A817B8175956795A901EC
:10351000261B370B460F571F419351930F01EEE6C1
:10352000F3E3EA0DFB1D4591559165917591F0010D
:10353000950320010C031001491E9C03590A300C0D
:10354000411C591ED803590A300C411C591EB7039F
:1035500040012E033001891EBE03990A700C811CA4
:10356000991EFA03990A700C811C991E260C371CAF
:10357000481C591C49925992B50320012C03100193
:10358000491EBC03590A300C411C591EDA03590A62
:10359000300C411C591E970340010E033001891E57
:1035A0009E03990A700C811C991EF803990A700CED
:1035B000811C991E261837084808590849925992C3
:1035C000AC0CBD1CA7FE8CCF04E0A09FC00DD11D8C
:1035D000E00DF11DB09FD00DF00D81E0E81AF90A61
:1035E00009F07BCFEF91FF918F919F91880F991FE9
:1035F000B695A795109609F060CFCF91DF910F9106
:103600001F91EF90FF90CF90DF90AF90BF908F9081
:103610009F906F907F904F905F902F903F90089574
:103620003F922F925F924F927F926F929F928F92D2
:10363000BF92AF921F930F93DF93CF935C01EB0187
:10364000EEEEF3E3992700E210E0A591B591AA0D03
:10365000BB1D2D913D914D915D91B30320012A0336
:103660001001491EBA03590A300C411C591EBA03F5
:10367000590A300C411C591ED50340014C0330013E
:10368000891EDC03990A700C811C991EDC03990ABF
:10369000700C811C991E260C371C481C591C662472
:1036A00077248824992421E030E04427552770E1CD
:1036B000220C331C441C551C661C771C881C991C4E
:1036C000220C331C441C551C661C771C881C991C3E
:1036D0002AF4620E731E841E951E04C0621A730AB9
:1036E000840A950A220F331F441F287F256097FC08
:1036F00022507A95E9F64695379527954695379560
:103700002795299339930150104009F09ECFCF910E
:10371000DF910F911F91AF90BF908F909F906F900E
:103720007F904F905F902F903F9011240895AC01AF
:103730009927D703F0014E03D001E91FDE03F90BEF
:10374000B00DE11DF91FFC03F90BB00DE11DF91FD0
:10375000CF011124089590E490937C00823011F4FD
:1037600081E017C0843011F482E013C0883011F476
:1037700083E00FC0803111F484E00BC0803211F47B
:1037800085E007C0803411F486E003C0803819F466
:1037900087E080937A0080917A00806880937A0035
:1037A00080917A00806480937A0080917A0086FD0F
:1037B000FCCF089590917C008F71907E892B80932F
:1037C0007C0080917A00806480937A0080917A00F6
:1037D00086FDFCCF809178009091790008952F921A
:1037E0003F924F925F926F927F928F929F92AF9291
:1037F000BF92CF92DF92EF92FF920F931F93CF93DE
:10380000DF9381E090E00E943626282E80932101EC
:1038100082E090E00E943626082F8093130183E017
:1038200090E00E943626D82F8093220184E090E019
:103830000E943626C82F8093150185E090E00E94F3
:103840003626982E80930F0186E090E00E9436265F
:10385000A82E80932B0987E090E00E943626B82E90
:1038600080932E0988E090E00E943626182FC82EFB
:10387000D12CE12CF12CC0923409D0923509E09280
:103880003609F092370989E090E00E943626382EFA
:10389000809333098AE090E00E943626482E809378
:1038A00029098BE090E00E943626582E80932A0941
:1038B0008CE090E00E943626682E80931D018DE0FA
:1038C00090E00E943626782E80931C018EE090E0D6
:1038D0000E943626882E809312018FE090E00E948D
:1038E0003626982F809314018FEF281203C080EAA8
:1038F000809321018FEF381208C0481206C081E082
:103900008093330984EF809329098FEF581202C006
:1039100010922A098FEF681206C0781204C0109224
:103920001D0110921C018FEF881207C09F3F29F4E0
:1039300084E0809312011092140181E0891510F443
:1039400080930F0181E08A1510F480932B0981E0A8
:103950008B1510F480932E090B3018F088E08093BB
:103960001301D150D23018F081E08093220112303F
:1039700050F183E0C816D104E104F10421F18CE098
:10398000C816D104E104F104F1F089E1C816D104AC
:10399000E104F104C1F083E3C816D104E104F104A9
:1039A00091F087E6C816D104E104F10461F089E1E1
:1039B00090E0A0E0B0E08093340990933509A093A3
:1039C0003609B0933709C23079F0C43069F0C83095
:1039D00059F0C03149F0C03239F0C03429F0C03854
:1039E00019F080E8809315018091330990E0982FB9
:1039F000882720912909820F911D909317018093A8
:103A0000160180911C0180932701809114018093FD
:103A1000200181E090E00090130102C0880F991FFF
:103A20000A94E2F7909319018093180180911E0186
:103A300090911F01009711F00E949E258091230113
:103A400090912401009711F00E949E25E0901801AA
:103A5000F0901901C701880F991F880F991F0E94C4
:103A6000092590931F0180931E01C70196958795A4
:103A7000880F991F880F991F0E9409259093240190
:103A800080932301DF91CF911F910F91FF90EF90D1
:103A9000DF90CF90BF90AF909F908F907F906F906E
:103AA0005F904F903F902F900895CF93DF9380E0E9
:103AB0000E94C62380932201682F83E090E00E9439
:103AC0003E2680E00E94C62380932101682F81E07A
:103AD00090E00E943E2680E00E94C623809313015E
:103AE000682F82E090E00E943E2680E00E94C6237C
:103AF00080931501682F84E090E00E943E2680E0CC
:103B00000E94C62380930F01682F85E090E00E94F9
:103B10003E2680E00E94C62380932B09682F86E012
:103B200090E00E943E2680E00E94C62380932E09EA
:103B3000682F87E090E00E943E2680E00E94C62326
:103B4000AC01990F660B770B4093340950933509FC
:103B50006093360970933709682F88E090E00E94DF
:103B60003E2680E00E94C62380933309682F89E0B7
:103B700090E00E943E2680E00E94C623809329099F
:103B8000682F8AE090E00E943E2680E00E94C623D3
:103B900080932A09682F8BE090E00E943E2680E007
:103BA0000E94C62380931D01682F8CE090E00E9444
:103BB0003E2680E00E94C62380931C01682F8DE082
:103BC00090E00E943E2680E00E94C623809312016E
:103BD000682F8EE090E00E943E2680E00E94C6237F
:103BE00080931401682F8FE090E00E943E26809120
:103BF000330990E0982F882720912909820F911D81
:103C0000909317018093160180911C0180932701E6
:103C1000809114018093200181E090E000901301D5
:103C200002C0880F991F0A94E2F7909319018093BC
:103C3000180180911E0190911F01009711F00E94C0
:103C40009E258091230190912401009711F00E94FC
:103C50009E25C0911801D0911901CE01880F991F9E
:103C6000880F991F0E94092590931F0180931E01C0
:103C7000CE0196958795880F991F880F991F0E94EE
:103C80000925909324018093230160913409709158
:103C90003509809136099091370940E00E945623FA
:103CA00080911501DF91CF910C94AB1BCF93DF93E3
:103CB00080E00E94C62380930E018B3F31F08091FB
:103CC0000E018E3F09F0A4C0AEC014982E982F9A12
:103CD0001092260110922501C0912501D091260154
:103CE0008091180190911901C817D907B8F480E0A4
:103CF0000E94DA1BCC0FDD1FC85DDE4F96958795BD
:103D000096958795998388838091250190912601C6
:103D100001969093260180932501DECF1092260113
:103D20001092250180912501909126012091180182
:103D3000309119018217930710F62091220121304A
:103D4000E1F4880F991FFC01E85DFE4F809121018D
:103D500090E020813181821793077CF480912E09B5
:103D6000813009F4149A80910F01813009F42E9A60
:103D700080912B09813009F42F98E0912501F09171
:103D80002601EE0FFF1FE85DFE4F60E080810E947C
:103D90008E23809125019091260101969093260112
:103DA00080932501BFCF60911E0170911F01811585
:103DB00021E0920709F4AAC008F077C08034910589
:103DC00009F05AC088E291E00E94171A80911E0102
:103DD00090911F010E94461A609123017091240165
:103DE00080911E0190911F010E94101B10921B01D7
:103DF00010921A0120911A0130911B018091180133
:103E000090911901969587952817390708F493C062
:103E100080910E018A3F09F0B1C060E086E091E038
:103E20000E94A023ABC01092260110922501809120
:103E30001801909119012091250130912601281730
:103E4000390708F0B0CF80E00E94DA1B909339095F
:103E5000809338092091250130912601F901EE0F58
:103E6000FF1FE85DFE4F918380832F5F3F4F3093AC
:103E7000260120932501DBCF8038910509F046C04B
:103E800088E291E00E943B0D80911E0190911F01FC
:103E90000E946A0D609123017091240180911E019E
:103EA00090911F010E94340EA1CF811522E092074C
:103EB000C1F08115944051F588E291E00E94670AB3
:103EC00080911E0190911F010E94960A609123012A
:103ED0007091240180911E0190911F010E94600B3E
:103EE00085CF88E291E00E94E31780911E019091B6
:103EF0001F010E941218609123017091240180918A
:103F00001E0190911F010E94DC1870CF88E291E0A1
:103F10000E944F1180911E0190911F010E947E11FD
:103F2000609123017091240180911E0190911F01E5
:103F30000E9448125BCFE0912301F0912401232BD2
:103F400011F41182108280911A0190911B0181302D
:103F5000910511F413821282880F991FE80FF91F3F
:103F600060E080810E948E2380911A0190911B0154
:103F7000019690931B0180931A013CCF80910E0112
:103F80008C3F09F04BC060E0809122010E948E239B
:103F900060E0809121010E948E2360E080911301F6
:103FA0000E948E2360E0809115010E948E2360E0C4
:103FB00080910F010E948E2360E080912B090E9466
:103FC0008E2360E080912E090E948E2360E0809114
:103FD00034090E948E2360E080912A090E948E237A
:103FE00060E0809133090E948E2360E0809129096E
:103FF0000E948E2360E080911D010E948E2360E06C
:1040000080911C010E948E2360E0809112010E9429
:104010008E2360E0809114010E948E2380910E0116
:104020008D3F11F40E94551D80910E018F3F09F0C4
:104030003FCEDF91CF910895009741F0EFE9FFE087
:104040003197F1F700C000000197F6CF0895811570
:1040500024E09207D1F4623009F4D8C0643009F446
:10406000F8C0683009F4D7C0603109F4D9C06032B3
:1040700009F4DBC0603409F4DDC0603809F04DC1DB
:104080008EEA97E4A1EAB0E44CC1811522E09207E0
:10409000D1F4623009F4D3C0643009F4F3C068305D
:1040A00009F4D2C0603109F4D4C0603209F4D6C03A
:1040B000603409F4D8C0603809F02FC18EEA97E463
:1040C000A1E2B0E42EC1811521E09207D1F4623063
:1040D00009F40FC1643009F4CBC0683009F4CDC0D5
:1040E000603109F4CFC0603209F4D1C0603409F402
:1040F000D3C0603809F011C18EEA97E4A1EABFE3AA
:1041000010C180389105D1F4623009F4F7C06430F1
:1041100009F4C7C0683009F4C9C0603109F4CBC0E4
:10412000603209F4CDC0603409F4CFC0603809F0C2
:10413000F4C08EEA97E4A1E2BFE3F3C080349105B6
:10414000D1F4623009F4E4C0643009F4E1C06830AD
:1041500009F4D4C0603109F4BDC0603209F4BFC0B5
:10416000603409F4C1C0603809F0D7C08AE097ED27
:10417000A3EABEE3D6C080329105B1F4623009F4FF
:10418000C2C0643009F4C4C0683009F4C1C06031F1
:1041900009F4BEC0603209F4B1C0603409F4A9C0AA
:1041A000603809F0BAC069C080319105B1F462305D
:1041B00009F4A9C0643009F4A6C0683009F4A3C0AA
:1041C000603109F4A0C0603209F4A2C0603409F47F
:1041D00095C0603809F0A1C069C0089709F09DC07A
:1041E000623009F490C0643009F48DC0683009F47D
:1041F0008AC0603109F487C0603209F484C0603439
:1042000009F486C0603809F088C078C08CE59FE862
:10421000A2ECBEE386C086EF98E2ACE1BFE381C0CA
:1042200086E696E6A6E6BFE37CC08AE097EDA3ECBF
:10423000BFE377C084EA90E7ADE2B0E472C08DE3FB
:104240009AE0A7E5BEE36DC082E598EBAEE9BEE378
:1042500068C08FE195E8ABEEBEE363C08CE59FE8F4
:10426000A2E4BFE35EC08DEC9CECACEABFE359C0B6
:1042700089E29CE5AFE0BEE354C08BE794E1AEE297
:10428000BEE34FC08FE892ECA5E7BEE34AC084E1ED
:104290009EEAA7ECBEE345C08BE794E1AEE2BFE344
:1042A00040C08AE097EDA3EABDE33BC08DEC9CECF7
:1042B000ACECBDE336C088EB9EE1A5E0BEE331C0C7
:1042C0008DEC9CECACE4BEE32CC08BE794E1AEEA51
:1042D000BEE327C08DEC9CECACE4BFE322C08FE8CA
:1042E00092ECA5EFBDE31DC08CEE91E5A8E3BEE323
:1042F00018C08EEA97E4A1EEBDE313C089E29CE505
:10430000AFE8BDE30EC08DEC9CECACE4BDE309C0AE
:104310008FE892ECA5E7BDE304C080E090E0A0E860
:10432000BFE3BC01CD01089510921F0110921E0140
:1043300010922401109223011092280910922D0945
:1043400010922C0910921101109210010E94EF1B83
:10435000809115010E94AB1B609134097091350961
:10436000809136099091370940E00E94562341E040
:1043700067E670E080E090E00E94562380E181B91A
:1043800080EC84B914982E982F9A60911501809131
:104390001801909119010E94272060932F097093B2
:1043A00030098093310990933209C2E0D0E080E077
:1043B0000E94B02380930E0180912201813049F543
:1043C00080E00E94DA1B9695879596958795909345
:1043D0003909809338092091210130E028173907E5
:1043E000C4F480912E09813009F4149A80910F0150
:1043F000813009F42E9A80912B09813009F42F988D
:1044000080911601909117010E941C2014982E98FB
:104410002F9A80912201823009F02BC1109226013F
:104420001092250180911801909119012091250188
:104430003091260128173907C8F480E00E94DA1B62
:1044400090933909809338092091250130912601F4
:10445000F901EE0FFF1FE85DFE4F918380832F5F10
:104460003F4F3093260120932501DCCF60911E0140
:1044700070911F01811521E0920709F464C0E0F4F6
:1044800080349105B1F18038910509F05CC088E273
:1044900091E00E943B0D80911E0190911F010E94AE
:1044A0006A0D609123017091240180911E01909109
:1044B0001F010E94340E5BC0811522E0920771F14A
:1044C0008115944009F03FC088E291E00E94670A9C
:1044D00080911E0190911F010E94960A6091230114
:1044E0007091240180911E0190911F010E94600B28
:1044F0003EC088E291E00E94171A80911E019091BF
:104500001F010E94461A609123017091240180913D
:104510001E0190911F010E94101B29C088E291E0AA
:104520000E94E31780911E0190911F010E941218B2
:10453000609123017091240180911E0190911F01CF
:104540000E94DC1814C088E291E00E944F11809113
:104550001E0190911F010E947E11609123017091B4
:10456000240180911E0190911F010E944812109217
:104570002D0910922C091092110110921001D09364
:104580002601C0932501209118013091190136951B
:104590002795A0912301B09124018091250190914C
:1045A0002601409110015091110182179307C0F428
:1045B000FC01EE0FFF1FEA0FFB1F608171814617A0
:1045C000570740F4709311016093100190932D09E7
:1045D00080932C0901969093260180932501DDCFCD
:1045E0008091210190E08417950708F042C0609106
:1045F0002C0970912D098091270190E068177907A7
:1046000030F08091200190E08617970720F4809188
:104610002A0981112EC080E090E00E947B24209125
:104620002F093091300940913109509132090E948F
:10463000DA230E944C24862F6093280961E00E94AF
:104640008E2380912E09813009F4149A80910F01F4
:10465000813009F42E9A80912B09813009F42F982A
:1046600080911601909117010E941C2014982E9899
:104670002F9A80910E018A3F09F099CE60E086E082
:1046800091E00E94A0230E94561E60911501809126
:104690001801909119010E94272060932F097093AF
:1046A0003009809331099093320981CE0F931F9383
:1046B000411118C02091C10020612093C1002091B8
:1046C000C10028602093C1002091C2002660209381
:1046D000C200072F182F292F33270093C50060939E
:1046E000C40019C04130B9F42091C9002061209361
:1046F000C9002091C90028602093C9002091CA00F8
:1047000026602093CA00072F182F292F33270093E4
:10471000CD006093CC001F910F910895611107C0E7
:104720009091C00095FFFCCF8093C6000895613042
:1047300031F49091C80095FFFCCF8093CE0008958E
:104740001F93CF93DF93162FEC018991882321F0DB
:10475000612F0E948E23F9CFDF91CF911F91089591
:10476000811107C08091C00087FF0DC08091C600F5
:1047700008C0813041F48091C80087FF04C0809157
:10478000CE0090E0089580E090E00895811105C08A
:104790008091C00087FFFCCF06C0813041F480913A
:1047A000C80087FFFCCF8091C60090E0089580E0AC
:1047B00090E008950E94EE230C94CF240E94C82418
:1047C00058F00E94C12440F029F45F3F29F00C9476
:1047D000B82451110C9403250C94BE240E94E024AB
:1047E00068F39923B1F3552391F3951B550BBB2720
:1047F000AA2762177307840738F09F5F5F4F220F65
:10480000331F441FAA1FA9F335D00E2E3AF0E0E85B
:1048100032D091505040E695001CCAF72BD0FE2FA5
:1048200029D0660F771F881FBB1F26173707480739
:10483000AB07B0E809F0BB0B802DBF01FF279358F1
:104840005F4F3AF09E3F510578F00C94B8240C94D9
:1048500003255F3FE4F3983ED4F3869577956795FB
:10486000B795F7959F5FC9F7880F911D9695879526
:1048700097F90895E1E0660F771F881FBB1F621745
:1048800073078407BA0720F0621B730B840BBA0B03
:10489000EE1F88F7E09508950E94E82488F09F575E
:1048A00098F0B92F9927B751B0F0E1F0660F771F54
:1048B000881F991F1AF0BA95C9F714C0B13091F04A
:1048C0000E940225B1E008950C940225672F782FED
:1048D0008827B85F39F0B93FCCF38695779567950F
:1048E000B395D9F73EF490958095709561957F4F7B
:1048F0008F4F9F4F0895E89409C097FB3EF4909521
:104900008095709561957F4F8F4F9F4F9923A9F0A8
:10491000F92F96E9BB279395F69587957795679537
:10492000B795F111F8CFFAF4BB0F11F460FF1BC07B
:104930006F5F7F4F8F4F9F4F16C0882311F096E90E
:1049400011C0772321F09EE8872F762F05C06623BC
:1049500071F096E8862F70E060E02AF09A95660F75
:10496000771F881FDAF7880F9695879597F908952E
:1049700097F99F6780E870E060E008959FEF80EC12
:10498000089500240A9416161706180609060895B5
:1049900000240A9412161306140605060895092E1B
:1049A0000394000C11F4882352F0BB0F40F4BF2B8A
:1049B00011F460FF04C06F5F7F4F8F4F9F4F0895CA
:1049C00057FD9058440F551F59F05F3F71F04795C0
:1049D000880F97FB991F61F09F3F79F087950895A5
:1049E000121613061406551FF2CF4695F1DF08C0C4
:1049F000161617061806991FF1CF869571056105E1
:104A000008940895E894BB2766277727CB0197F988
:104A10000895CF93DF938230910510F482E090E007
:104A2000E0913C09F0913D0920E030E0C0E0D0E0A9
:104A3000309711F14081518148175907C0F048174C
:104A4000590761F482819381209719F09B838A83AF
:104A50002BC090933D0980933C0926C02115310558
:104A600019F04217530718F49A01BE01DF01EF0154
:104A70000280F381E02DDCCF2115310509F1281BDF
:104A8000390B2430310590F412968D919C91139737
:104A90006115710521F0FB019383828304C090931B
:104AA0003D0980933C09FD01329644C0FD01E20FAF
:104AB000F31F81939193225031092D933C933AC077
:104AC00020913A0930913B09232B41F420910201B6
:104AD0003091030130933B0920933A092091000162
:104AE000309101012115310541F42DB73EB74091B8
:104AF000040150910501241B350BE0913A09F09116
:104B00003B09E217F307A0F42E1B3F0B28173907C8
:104B100078F0AC014E5F5F4F2417350748F04E0F19
:104B20005F1F50933B0940933A098193919302C0D0
:104B3000E0E0F0E0CF01DF91CF9108950F931F9354
:104B4000CF93DF93009709F48CC0FC013297138256
:104B5000128200913C0910913D090115110581F463
:104B600020813181820F931F20913A0930913B09B6
:104B70002817390779F5F0933B09E0933A0971C09A
:104B8000D80140E050E0AE17BF0750F412962D91C7
:104B90003C911397AD012115310509F1D901F3CFEE
:104BA0009D01DA013383228360817181860F971F13
:104BB0008217930769F4EC0128813981260F371F8A
:104BC0002E5F3F4F318320838A819B819383828331
:104BD000452B29F4F0933D09E0933C0942C013961C
:104BE000FC93EE931297ED01499159919E01240F88
:104BF000351FE217F30771F480819181840F951FAF
:104C0000029611969C938E938281938113969C9326
:104C10008E931297E0E0F0E0D80112968D919C916E
:104C20001397009719F0F8018C01F6CF8D919C91A4
:104C300098012E5F3F4F820F931F20913A093091C8
:104C40003B092817390769F4309729F410923D0978
:104C500010923C0902C01382128210933B09009308
:104C60003A09DF91CF911F910F910895F999FECFE5
:104C700092BD81BDF89A992780B50895262FF9999C
:104C8000FECF1FBA92BD81BD20BD0FB6F894FA9A2F
:0C4C9000F99A0FBE01960895F894FFCF2A
:0E4C9C0000003E09200052454231363500002E
:00000001FF
